S02B0000443A5C305F6F6E676F696E675C6C6F636B737465705C6C6F636B737465705F62656E63685C68617202
S3150000000097110000938181FB37F10F00EF00C00FBD
S31500000010730050106FF0DFFF034605006306060409
S31500000020B796FF0093968600B795FF009386460025
S315000000309395850037871E0013051500130717488B
S315000000406F008000630A070083A706001B07F7FFFF
S3150000005093F70720E39807FE1B06060023A0C500BA
S3150000006003460500E31806FC67800000B716E43F68
S31500000070938636C0939626009307100037871E0096
S3150000008023A0F600130707481306F0FF6F00C00011
S315000000901B07F7FF630AC70083A7060093F717003D
S315000000A0E39807FE630A0704B707F21F93871760F2
S315000000B0B716E43F1B05050093973700938636C0B5
S315000000C023A0A7009396260037871E0023A0B6001C
S315000000D013071748130610006F008000630E070011
S315000000E083A706001B07F7FF93F73700E398C7FEC1
S315000000F013050000678000001305F0FF678000000D
S315000001001305F0FF67800000130101FB233411047F
S3150000011023308104233C9102233821039307807BFB
S31500000120170700001307877963F8E70023800700A5
S3150000013093871700E39CE7FE13041000B7970000AF
S315000001401314F401938707B03797FF00232CF400AC
S315000001509306100813178700B797FF002326D700CA
S31500000160939787001307300023A4E70017050000C4
S315000001701305C554EFF05FEAB7970000938717B0F1
S3150000018037050101232CF4001B051510930600000A
S31500000190930700001306807BB708005A1308000473
S315000001A09395070213D7E5013307E600B3C5160199
S315000001B09B8717002320B700BB86A600E39207FFA4
S315000001C093060000930700001308000493950702A6
S315000001D013D7E5013307E600032707009B871700BF
S315000001E0138506009B050700B346D700E39007FF7B
S315000001F0B385A540170500001305C54EB334B000FE
S31500000200EFF09FE113091000B7970000938727B01E
S315000002101319F901232CF900170500001305854E63
S31500000220EFF09FDF1705000013054552EFF0DFDE04
S31500000230B7970000B716C87FB718C87F3718C87FAA
S31500000240371EC87F3713C87F938737B01306F0FF72
S31500000250939616009398180013181800131E1E0084
S315000002601313130013840400232CF900938646020B
S315000002709388080213088803130E0E03130343031F
S315000002809302060013050000930500009303000087
S31500000290B70F0003130FE0FF930E00269377C500F8
S315000002A023A05600B3E7F70123A0F8002320E801B6
S315000002B013C7550AB7871E002320EE009387074809
S315000002C06F00C0009B87F7FF6380C70203A7060085
S315000002D013770720E30807FE03A70600635A070003
S315000002E0638A07329B87F7FF03A70600E34A07FEE8
S315000002F0032703002320C80023A0080063840732D5
S315000003009B8535011B054500E39AD5F92334310356
S3150000031023304103233C51016384030013E444006A
S3150000032093071000379700009397F701130747B01C
S3150000033023ACE70037276011B737000013072740C3
S3150000034093872732B796FF07939656002324E1003A
S315000003502316F100930710002380F600130600F819
S31500000360A38FC6002383C60013064003A383C600DB
S315000003701307A0012384E60013850601930E4000AF
S31500000380130E81002380D601138316003305C54161
S315000003909386260093020000930800001308E100EC
S315000003A0930F00011306F0FF130F000237871E009C
S315000003B0130717486F008000630A070083C706000B
S315000003C01B07F7FF93F74700E38807FE93C758FA22
S315000003D013C7A805A306F100A30511012306E10032
S315000003E093070E0083C507003307F50093871700B0
S315000003F02300B700E318F8FE37871E002300F30139
S31500000400130707486F00C0001B07F7FF630CC70000
S3150000041083C7060093F78700E38807FE6314070087
S315000004209302F0FF2300D3019B881800E390E8F9BC
S31500000430638402001364840013071000B79600005B
S315000004401317F701938656B0B717E43F232CD7004E
S31500000450938717C037071000939727001307379025
S3150000046023A007001317C7009306F0012320D70027
S315000004701307000823A0E7001309000093040000F7
S315000004809309F0FF130A70006F0000019B841400AB
S31500000490930700026386F40E930500091305000A0C
S315000004A0EFF0DFBC630405001309F0FF93FAF40FC5
S315000004B013850A0093050001EFF05FBB6304050096
S315000004C01309F0FF13C5AA0593050005EFF01FBA3F
S315000004D0630405001309F0FF93F77400E39847FBE4
S315000004E0930500091305100AEFF05FB863040500D1
S315000004F01309F0FFB716E43F938636C0939626009D
S315000005009307100037871E0023A0F600130707483D
S315000005106F00C0001B07F7FF630A370183A70600B9
S3150000052093F71700E39807FE63000712B716E43F38
S31500000530938636C0939626009307800637871E005B
S3150000054023A0F60013071748130610006F0080005B
S315000005506308070E83A706001B07F7FF93F737000C
S31500000560E398C7FEB707F21F938717609397370084
S3150000057083A707009B84140093070002E39EF4F010
S31500000580B717E43F938717C09397270023A0070068
S3150000059037970000930710009397F701130767B08A
S315000005A023ACE700170500001305C51D6300090805
S315000005B0EFF09FA613640401170500001305850DCF
S315000005C0EFF09FA5170500001305C51DEFF0DFA48A
S315000005D0B7570000938707E2130000009B87F7FFD9
S315000005E0E39C07FE930710009397F7019387470054
S315000005F063180400930710009397F7019387470148
S315000006001B04140023A087007300501073005010C1
S315000006106FF09FFF832703002320C80023A0080054
S315000006206FF01FCE9303F0FF6FF09FCDEFF0DF9ECC
S3150000063063100402170500001305C5026FF05FF88A
S315000006401309F0FF6FF01FF21309F0FF6FF01FEEB2
S3110000065017050000130505046FF09FF667
S3090000065C0000000094
S315000006604C4F434B535445505F385F50524F544F95
S31500000670434F4C5F42454E43484D41524B3A205002
S315000006804153530A00000000000000000000000073
S315000006904C4F434B535445505F385F50524F544F65
S315000006A0434F4C5F42454E43484D41524B3A2050D2
S315000006B041525449414C0A000A4C4F434B5354454E
S315000006C0505F385F50524F544F434F4C5F42454E38
S315000006D043484D41524B3A20424547494E0A000095
S315000006E04148423A205245414420575249544520F8
S315000006F0425552535420434F4D504C4554450A00E1
S31500000700554152543A203332204652414D455320EA
S3150000071035352041332030302046462031312032D5
S3150000072032203333203434203535204133203030E5
S315000007302046462031312032322033332034340AE9
S315000007400000000000000000554152543A203535A3
S3150000075020413320303020464620313120323220AD
S315000007603333203434203535204133203030204691
S31500000770462031312032322033332034340A00000F
S315000007804A5441473A20484F535420414354494F15
S315000007904E2052455155495245440A00000000007A
S315000007A050524F4752414D5F52554E5F444F4E4552
S307000007B00A0037
S70500000000FA
