S02B0000443A5C305F6F6E676F696E675C6C6F636B737465705C6C6F636B737465705F62656E63685C68617202
S31500000000971100009381013B37F10F00EF00C00FFD
S31500000010730050106FF0DFFF034605006306060409
S31500000020B796FF0093968600B795FF009386460025
S315000000309395850037870100130515001307176A86
S315000000406F008000630A070083A706001B07F7FFFF
S3150000005093F70720E39807FE1B06060023A0C500BA
S3150000006003460500E31806FC67800000B716E43F68
S31500000070938636C0939626009307100037870100B3
S3150000008023A0F6001307076A1306F0FF6F00C000EF
S315000000901B07F7FF630AC70083A7060093F717003D
S315000000A0E39807FE630A0704B707F21F93871760F2
S315000000B0B716E43F1B05050093973700938636C0B5
S315000000C023A0A700939626003787010023A0B60039
S315000000D01307176A130610006F008000630E0700EF
S315000000E083A706001B07F7FF93F73700E398C7FEC1
S315000000F013050000678000001305F0FF678000000D
S315000001001305F0FF67800000130101FA233C110478
S31500000110233881042334910417170000130787C975
S3150000012097170000938707A963F8E7002380070065
S3150000013093871700E39CE7FE13041000B7970000AF
S315000001401314F401938707B03797FF00232CF400AC
S315000001501317870093061008B797FF002326D700CA
S31500000160939787001307300023A4E70017150000B4
S315000001701305458AEFF05FEAB7970000938717B03B
S3150000018037060100232CF4001306161097170000FB
S3150000019023A207A21303060013071000930500000D
S315000001A0971800009388889E17150000130585A0F0
S315000001B0130800089377770093972700B387F80012
S315000001C083A70700131E07029356EE01B3C7C700A5
S315000001D0B306D50023A0F6001B071700B3C5B7006A
S315000001E03B066600E31807FD930600009307000030
S315000001F013060008139807021357E8013307E500B2
S31500000200032707009B871700B346D700E394C7FE72
S315000002106394D57097170000238E079897160000F1
S3150000022093865699930710009714000093840498B8
S315000002301306000413F777003387E400034707002B
S315000002409386160033C7E700A38FE6FE9B87170049
S31500000250E392C7FE171600001306C6959307000023
S3150000026013070000130500046F0000016308A7626E
S3150000027083C706001306160083450600B3C7E700CA
S315000002801B0717009376770093F7F70FB386D40012
S31500000290E38EF5FC13041000170500001305057A1C
S315000002A0EFF09FD793071000379700009397F70159
S315000002B0130727B0170500001305C57B23ACE7001D
S315000002C0EFF09FD5B796FF00939686003795FF000F
S315000002D0938646001315850093050000130600005B
S315000002E013080003378701001307176A6F008000A1
S315000002F0630A070083A706001B07F7FF93F707208B
S31500000300E39807FE9B8505002320B5001B06160013
S31500000310630A060193777600B387F40083C5070066
S315000003206FF05FFC1705000013054576EFF0DFCE92
S315000003309307100037970000B716C87F3718C87F95
S315000003403715C87F3713C87FB718C87F130737B06C
S315000003509397F7011306F0FF9396160013181800EB
S3150000036013151500131313009398180023ACE70018
S315000003709386460213080802130585031303030335
S3150000038093884803930F06001307000093020000AA
S3150000039093050000370F0003930EE0FF130E0003D2
S315000003A09B97250093F7C70023A0F601B3E7E70163
S315000003B02320F8001B0707002320D501B78701007B
S315000003C02320E3009387076A6F00C0009B87F7FF2F
S315000003D06380C70203A7060013770720E30807FE1A
S315000003E003A70600635A0700638C07029B87F7FF83
S315000003F003A70600E34A07FE03A708002320C5005B
S3150000040023200800638207209B8515006384C503AB
S3150000041093F77500B387F40003C707006FF05FF822
S3150000042083A708002320C500232008009B8515000C
S31500000430E390C5FF23302105233C310323384103D4
S315000004402334510323306103233C71011705000057
S315000004501305C54D638802001364440017050000A8
S315000004601305454FEFF05FBB930710003797000069
S315000004709397F701130747B023ACE700B796FF073A
S315000004809396560023300100231401002305010032
S31500000490930710002380F600130600F8A38FC6000A
S315000004A02383C60013064003A383C6001307A001D7
S315000004B02384E600130E40002380C601138506013F
S315000004C093881600B796FF0793965600B79EE338B3
S315000004D0330525401303310093862600938E9EE351
S315000004E013080000130FF0011306F0FF9303000139
S315000004F0930200022380C8019305F07F6308E80198
S315000005009B0508129395050393D5050337870100CC
S315000005101307076A6F00C0001B07F7FF630AC700CF
S3150000052083C7060093F74700E38807FE6302070EBA
S3150000053013170802135707023307D70303C9060028
S3150000054013791900135717029B173700BB87E7006B
S31500000550BB07F840630409002380C8011BD7350098
S315000005609B9555002300F100A300E1002301B10093
S3150000057013090000638C0702139907021359090235
S31500000580130A08009707000093874762B30999008A
S315000005909305030003C7070093871700938515008B
S315000005A03347EA00A38FE5FEE39637FF33072301BF
S315000005B09307010003C90700B305F50093871700E9
S315000005C023802501E398E7FE378701002380780022
S315000005D01307076A6F00C0001B07F7FF630AC7000F
S315000005E083C7060093F71700E38807FE6302070236
S315000005F02380C8011B081800E31058F017050000F7
S315000006001305C5376F0080019302F0FF6FF0DFDF3F
S31500000610136484001705000013054538EFF0DF9FCB
S3150000062013071000B79600001317F701938656B00C
S31500000630B717E43F232CD700938717C0370710005E
S31500000640939727001307379023A007001317C700B7
S315000006509306F0012320D7001307000823A0E70024
S315000006609309000093040000130AF0FF930A300078
S315000006706F00000293050005EFF05F9F630405001D
S315000006809309F0FF9B84140093070003638EF40E16
S3150000069093F71400130B400A63940700130B000A28
S315000006A09305000913050B0093FB3400EFF01F9C24
S315000006B0630405009309F0FF13F9F40F130509000D
S315000006C093050001EFF09F9A630405009309F0FF7C
S315000006D01345A905E3905BFB93050001EFF01F9915
S315000006E0630405009309F0FF13651B0093050009D9
S315000006F0EFF0DF97630405009309F0FFB716E43FB8
S31500000700938636C09396260093071000378701001C
S3150000071023A0F6001307076A6F00C0001B07F7FF48
S31500000720630A470183A7060093F71700E39807FEBD
S31500000730630A071CB716E43F938636C093962600D5
S31500000740930780063787010023A0F6001307176A70
S31500000750130610006F0080006304070E83A70600CF
S315000007601B07F7FF93F73700E398C7FEB707F21F9B
S31500000770938717609397370083A707009B8414001D
S3150000078093070003E396F4F0B717E43F938717C087
S315000007909397270023A007006388090A170500001E
S315000007A013054530EFF05F87930710003797000079
S315000007B09397F701130767B023ACE700170500000E
S315000007C013054531EFF05F851705000013058532E7
S315000007D0EFF09F84170500001305C533EFF0DF83A4
S315000007E0136404011705000013054520EFF0DF82AE
S315000007F01705000013050538EFF01F82B7570000F4
S31500000800938707E2130000009B87F7FFE39C07FE30
S31500000810930710009397F701938747006318040026
S31500000820930710009397F701938747011B04140061
S3150000083023A0870073005010730050106FF09FFFC5
S315000008409309F0FF6FF09FF2170500001305852F3F
S31500000850EFF08FFC93071000379700009397F7018E
S31500000860130767B023ACE7001705000013058526BC
S31500000870EFF08FFA170500001305C527EFF0CFF943
S315000008801705000013050529EFF00FF9631004089A
S3150000089017050000130505136FF05FF51386018831
S315000008A037A5FFFF93070600130505509385018CB6
S315000008B013070000B346A7002390D70093872700AD
S315000008C01B071710E398B7FEB7A6FFFF93860650DF
S315000008D0130700006F0080006302B602B347D7001B
S315000008E0035506009397070393D7070313062600BD
S315000008F01B071710E302F5FE6FF0DF9913040000E3
S315000009006FF09F999309F0FF6FF0DFE21705000083
S315000009101305C50D6FF09FED13041000970400003A
S30D000009209384C4286FF05F9771
S315000009285350493A203438204D4F4445302D332012
S31500000938424F554E4441525920504153530A0000E4
S3150000094800000000000000005350493A20343820C7
S315000009584D4F4445302D3320424F554E4441525950
S31500000968205041525449414C0A0000000000000042
S3150000097843414E3A20333220444C43302D382049E7
S31500000988443132302D37464620504153530A000031
S3150000099843414E3A20333220444C43302D382049C7
S315000009A8443132302D374646205041525449414C45
S315000009B80A000000000000004C4F434B53544550BA
S315000009C85F385F50524F544F434F4C5F42454E433A
S315000009D8484D41524B3A20504153530A00000000FB
S315000009E84C4F434B535445505F385F50524F544F0A
S315000009F8434F4C5F42454E43484D41524B3A205077
S31500000A0841525449414C0A000A4C4F434B535445F2
S31500000A18505F385F50524F544F434F4C5F42454EDC
S31500000A2843484D41524B3A20424547494E0A000039
S31500000A384148423A2034343820574F5244204259CC
S31500000A4854452048414C46574F524420524541444C
S31500000A5820575249544520434F4D504C4554450A5A
S31500000A680000000000000000554152543A20424957
S31500000A784E41525920343820424547494E0A000013
S31500000A880A554152543A2042494E41525920343867
S31500000A9820454E440A0000004932433A20343820A3
S31500000AA85752495445203132205245504541544504
S31500000AB8442D5354415254205245414420504152EA
S31500000AC85449414C0A0000004554483A20554E41C5
S31500000AD85641494C41424C452044455349474E5F8F
S31500000AE84741500A000000005553423A20554E41EE
S31500000AF85641494C41424C452044455349474E5F6F
S31500000B084741500A000000004A5441473A20343809
S31500000B182049522D4452205343414E5320484F53A7
S31500000B285420414354494F4E205245515549524548
S31500000B38440A0000000000004932433A20343820B5
S31500000B485752495445203132205245504541544563
S31500000B58442D535441525420524541442050415348
S31500000B68530A00000000000050524F4752414D5FA3
S31500000B7852554E5F444F4E450A00000000000000E3
S31500000B8800000000FFFFFFFFAAAAAAAA555555555F
S31500000B9800000080FFFFFF7F01010101FEFEFEFE4F
S30D00000BA800FFA55A807F01FE43
S70500000000FA
